:100000000C9435010C9466010C9466010C94660105
:100010000C9466010C9466010C9466010C946601C4
:100020000C9466010C9466010C9466010C946601B4
:100030000C9466010C9466010C9466010C946601A4
:100040000C9466010C9466010C9466010C94660194
:100050000C9466010C9466010C9466010C94A50541
:100060000C9466010C9466010C9466010C94660174
:100070000C9466010C9466010C9466010C94660164
:100080000C9466010C9466010C9466010C94660154
:100090000C9466010C9466010C9466010C94660144
:1000A0000C9466010C9466010C9466010C94660134
:1000B0000C9466010C9466010C9466010C94660124
:1000C0000C9466010C9466010C9466010C94660114
:1000D0000C9466010C9466010C9466010C94660104
:1000E0000C9466010C949F050C9486020C948B0270
:1000F0000C9461020C9446020C94DC040C942903C9
:100100000C942B070C9479020C9458020C94650201
:100110000C9450020C94B8020C9454020C94730288
:100120000C94E9020C946F020C945B020C94DB04B7
:100130000C946B020C94FB010C9487020C948102CA
:100140000C947D020C944C02000021002400270036
:100150002A002D00300033000101000004010701D6
:100160000A0100002200250028002B002E0031008B
:10017000340002010000050108010B01000020000D
:100180002300260029002C002F003200000100006F
:10019000030106010901050505050705080808080A
:1001A000020202020A0A080804040404010101010F
:1001B000010101010303030303030303040707070A
:1001C0000C0C0C0C0C0C0C0C0202020206060606AF
:1001D000060606060B0B0B0B0B0B0B0B010210207C
:1001E000200808102040102040800201020108046D
:1001F0000201010204081020408080402010080401
:100200000201800402018040201008040201080459
:10021000020101020408102040800102040810209D
:10022000408000000A0B02090C0D0E0807030401B0
:1002300000000000000000000000000000000000BE
:10024000000000000000000000000000000012118B
:10025000100000000000000000000000000000008E
:1002600000000000000000002B0711241FBECFEF8C
:10027000D1E2DEBFCDBF00E00CBF12E0A0E0B2E0F3
:10028000EAE9F0E100E00BBF02C007900D92A2394D
:10029000B107D9F723E0A2E9B2E001C01D92AA326A
:1002A000B207E1F711E0C5E3D1E000E006C0219715
:1002B0000109802FFE010E943A08C433D10780E073
:1002C0000807A9F70E94EF050C944B080C94000056
:1002D00096E0899FD0011124AD55BD4F90967C9337
:1002E0006E935F9791E091969C939197E0911003A4
:1002F000F091110390910F03992339F0309751F049
:10030000811108C08091BF021994309719F05C9652
:100310008C91FACF0895CF92DF92EF92FF920F93D4
:100320001F9396E0899FF0011124ED55FD4F11A216
:10033000278D30A12130310551F178F0223031057F
:1003400009F451C02330310509F452C01F910F91B7
:10035000FF90EF90DF90CF9008956623B9F361E0AE
:1003600070E00E9468012FB7F89480919F029091ED
:10037000A002A091A102B091A2022FBF8093FB0224
:100380009093FC02A093FD02B093FE02DFCF9FB7D3
:10039000F894C0909F02D090A002E090A102F0904B
:1003A000A2029FBF0091FB021091FC022091FD026E
:1003B0003091FE02C01AD10AE20AF30A00910D033D
:1003C00010910E0330E020E00C151D052E053F05B1
:1003D00050F462E070E01F910F91FF90EF90DF907A
:1003E000CF900C9468016111B1CF63E070E0F3CF5E
:1003F00070E060E0F0CFAF92BF92CF92DF92EF92C9
:10040000FF920F931F93CF93DF936C017B018B01BE
:10041000040F151FEB015E01AE18BF08C017D1070E
:1004200059F06991D601ED91FC910190F081E02D98
:10043000C6011995892B79F7C501DF91CF911F91DD
:100440000F91FF90EF90DF90CF90BF90AF90089505
:100450008150823108F05AC0E82FF0E08827EC5C28
:10046000FD4F8F4F0C943A085402580246024C023A
:10047000500286025B02610265026B026F02730228
:1004800079027D028602810287028B0280918000C0
:100490008F77809380000895809180008F7DF9CFC1
:1004A00080918000877FF5CF84B58F7784BD0895D4
:1004B00084B58F7DFBCF8091B0008F778093B000A3
:1004C00008958091B0008F7DF9CF809190008F7753
:1004D000809390000895809190008F7DF9CF809156
:1004E0009000877FF5CF8091A0008F778093A00048
:1004F00008958091A0008F7DF9CF8091A000877F23
:10050000F5CF809120018F7780932001089580910D
:1005100020018F7DF9CF80912001877FF5CFCF9388
:10052000DF93282F30E0F901EE5DFD4F8491F90152
:10053000E452FE4FD491F901EA56FE4FC491CC2308
:10054000A1F081110E942802EC2FF0E0EE0FFF1FB6
:10055000E458FE4FA591B491EC91ED2381E090E039
:1005600009F480E0DF91CF91089580E090E0FACF28
:10057000862F0C948F021F93CF93DF93282F30E0A8
:10058000F901EE5DFD4F8491F901E452FE4FD491E3
:10059000F901EA56FE4FC491CC23A9F0162F811120
:1005A0000E942802EC2FF0E0EE0FFF1FEE59FE4FE5
:1005B000A591B4918FB7F894EC91111108C0D09522
:1005C000DE23DC938FBFDF91CF911F910895DE2B47
:1005D000F8CF862F642F0C94BB02CF93DF9390E06B
:1005E000FC01E452FE4F24918A569E4FFC018491F7
:1005F0008823C9F090E0880F991FFC01E85BFE4F4B
:10060000A591B491FC01EE59FE4FC591D4916111B1
:100610000DC09FB7F8948C91209582238C9388818C
:10062000282328839FBFDF91CF910895623051F432
:100630009FB7F8943C91822F809583238C93E88117
:100640002E2BEFCF8FB7F894EC912E2B2C938FBFDE
:10065000EACF862F642F0C94ED026F927F928F92D7
:100660009F92AF92BF92CF92DF92EF92FF920F9341
:100670001F93CF93DF9381E080930F038FB7F8949C
:1006800040919F025091A0026091A1027091A2023C
:100690008FBF8091FF0290910003A0910103B09160
:1006A0000203481B590B6A0B7B0B80910B03909143
:1006B0000C03B0E0A0E084179507A607B70708F081
:1006C0001DC1C0E080910903C81760F4E0910503E3
:1006D000F0910603EC0FF11D62E080810E94ED02B3
:1006E000CF5FF0CF712C812C912C54018394809199
:1006F0000A03781608F05FC0072D10E0E0910703A9
:10070000F0910803E00FF11F61E080810E94ED028B
:10071000E0910703F0910803E00FF11F60E0808192
:100720000E94BB02D501C401072C04C0880F991F89
:10073000AA1FBB1F0A94D2F76C017C01E094F094CD
:10074000612C809109036816F8F4C62DD0E0E09181
:100750000503F0910603EC0FFD1F80810E948F02BC
:100760002496CC0FDD1FCD55DD4F892B41F48881B8
:1007700099818C299D29998388836394E2CF88810C
:1007800099818E219F21F7CFE0910703F091080313
:10079000E00FF11F61E080810E94BB02809107039E
:1007A00090910803080F191F60E0F80180810E94F2
:1007B000ED0273949CCFC3EAD2E0FE018FEF9FEF6E
:1007C000278D30A1232B21F4148E968F858F11A2B3
:1007D000369622E0EF3DF20799F7F12C96E0D92EFC
:1007E00080910903F81608F050C0E12C0F2D10E09D
:1007F000000F111F05551D4F20910A03E21608F046
:1008000042C0F801608171810E2C02C07695679517
:100810000A94E2F7F29E900111242E0D311DE3EAB5
:10082000F2E080E0458D568D2417350709F46AC043
:100830008F5F36968A30B1F760FF23C0E3EAF2E0BB
:1008400090E080E0448D411117C0E0910303F091E6
:100850000403E20FF31F4081D89EF001D99EF00DF2
:100860001124ED55FD4F448F368F258F10A2178E22
:1008700061E00E948B0105C0019636968A30910591
:1008800009F7E394B9CFF394ABCF80E099A191112C
:10089000892F2696F2E0CF3DDF07C1F79FB7F89486
:1008A00040919F025091A0026091A1027091A2021A
:1008B0009FBF4093FF025093000360930103709326
:1008C00002038823D9F08091C4028823B9F0809173
:1008D000C2029091C302019789F48091BF02DF9117
:1008E000CF911F910F91FF90EF90DF90CF90BF902D
:1008F000AF909F908F907F906F90089510920F030C
:1009000080E0EDCF6170B5CF3FB7F894809193024E
:1009100090919402A0919502B091960226B5A89B61
:1009200005C02F3F19F00196A11DB11D3FBFBA2F81
:10093000A92F982F8827BC01CD01620F711D811D41
:10094000911D42E0660F771F881F991F4A95D1F7C6
:1009500008958F929F92AF92BF92CF92DF92EF92C3
:10096000FF924B015C010E9484046B017C010E9498
:1009700084046C197D098E099F09683E73408105C6
:100980009105A8F321E0821A9108A108B10888EE28
:10099000C80E83E0D81EE11CF11C81149104A1044F
:1009A000B10429F7FF90EF90DF90CF90BF90AF9008
:1009B0009F908F900895089590E080E00895FC0145
:1009C00001900020E9F73197AF01481B590BBC019A
:1009D00082E193E00C94FB01CF93DF93EC0160E0A4
:1009E0008E810E94BB0261E08E810E94BB0260E0AA
:1009F0008E810E94BB028BE891E00197F1F7DF91B5
:100A0000CF910895CF92DF92EF92FF920F931F93B1
:100A1000CF93DF936C017C0187E0E80EF11CD0E0FE
:100A2000C0E0062F10E0B8010C2E02C07595679546
:100A30000A94E2F76170F70181917F010E94BB0285
:100A40002196C430D10579F7C601DF91CF911F916E
:100A50000F91FF90EF90DF90CF900C94EC04CF9229
:100A6000DF92EF92FF920F931F93CF93DF93EC01EE
:100A7000F62E642F8C810E94BB028D818F3F19F06E
:100A800060E00E94BB020F2D10E08F8584FF25C01F
:100A90006E0187E0C80ED11CF12CE12CB8010E2CA0
:100AA00002C0759567950A94E2F76170F60181912D
:100AB0006F010E94BB02FFEFEF1AFF0A88E0E81601
:100AC000F10461F7CE01DF91CF911F910F91FF905B
:100AD000EF90DF90CF900C94EC04B80184E0759512
:100AE00067958A95E1F7CE010E9402056F2DCE0130
:100AF000DF91CF911F910F91FF90EF90DF90CF90FA
:100B00000C94020540E0682F82E193E00C942F05DD
:100B100081E00E9482058BE39FE10197F1F7089540
:100B200090912503691710F06FEF690FE62FF0E041
:100B3000EE5EFC4F9489890F80680C94820541E039
:100B40000E942F0581E090E008951F920F920FB64A
:100B50000F9211242F933F938F939F93AF93BF9343
:100B600080919F029091A002A091A102B091A20257
:100B70003091920223E0230F2D3758F50196A11DE5
:100B8000B11D2093920280939F029093A002A093A4
:100B9000A102B093A2028091930290919402A0913D
:100BA0009502B09196020196A11DB11D809393020A
:100BB00090939402A0939502B0939602BF91AF9147
:100BC0009F918F913F912F910F900FBE0F901F908B
:100BD000189526E8230F0296A11DB11DD2CF789457
:100BE00084B5826084BD84B5816084BD85B5826032
:100BF00085BD85B5816085BD80916E0081608093E3
:100C00006E0010928100809181008260809381004B
:100C1000809181008160809381008091800081605B
:100C2000809380008091B10084608093B1008091B6
:100C3000B00081608093B0008091910082608093C9
:100C4000910080919100816080939100809190004B
:100C50008160809390008091A10082608093A100C8
:100C60008091A10081608093A1008091A0008160AB
:100C70008093A00080912101826080932101809166
:100C80002101816080932101809120018160809306
:100C9000200180917A00846080937A0080917A00AC
:100CA000826080937A0080917A00816080937A00DC
:100CB00080917A00806880937A001092C10061E090
:100CC00088E00E94ED0261E089E00E94ED0261E0AF
:100CD00080E00E94900581E392E00E94DF0464EFCF
:100CE00071E080E090E00E94A90460E081E00E9451
:100CF000900580E492E00E94DF0464EF71E080E000
:100D000090E00E94A90461E089E00E94BB0260E0DB
:100D100088E00E94BB02C0E0D0E080911A0260E04F
:100D2000811127C089E00E94BB0261E088E00E9437
:100D3000BB020E942D038332B9F40E9488058EE421
:100D400092E00E94DF0461E089E00E94BB0260E063
:100D500088E00E94BB026CED75E080E090E00E94AC
:100D6000A90481E080931A022097B9F20E94000042
:100D7000D4CF80E00E9490058DE592E00E94DF04D0
:100D80000E942D038823D9F0E0919E02F0E0E956FD
:100D9000FD4F808360E081E00E9490058DE692E047
:100DA0000E94DF0464E670E080E090E00E94A90405
:100DB0000E94880580919E028F5F80939E028091A1
:100DC0009E02863089F663E172E087E992E00E9434
:100DD0004208892BF9F40E94880560E080E00E94B7
:100DE000900582E792E00E94DF0410921A0260E010
:100DF00089E00E94BB0261E088E00E94BB02809112
:100E00009E02E82FF0E0E856FD4F882309F181505B
:100E10001292FBCF0E94880561E080E00E9490055D
:100E200081E892E00E94DF0461E089E00E94BB0259
:100E300060E088E00E94BB0268EE73E080E090E032
:100E40000E94A90481E080931A020E948805D7CFEE
:100E500010929E0289CFCF93DF93109215031092C8
:100E6000140389E292E0909313038093120386E3C4
:100E7000809316038FEF8093170387E38093180303
:100E800088E38093190389E380931A038AE38093AC
:100E90001B038BE380931C0310921D0310921E030F
:100EA00010921F03109220031092210381E080937F
:100EB00025031092260380E48093270380E180932A
:100EC000280380E58093290361E086E30E94ED0218
:100ED000809117038F3F19F061E00E94ED0261E0FD
:100EE000809118030E94ED02C2E1D3E09E012251DD
:100EF00033408091210384FD0BC084E090E0219673
:100F00002817390744F461E08E810E94ED02EECF8C
:100F100088E090E0F4CF8BE39DE00197F1F760E08B
:100F2000809116030E94BB0260E0809118030E942A
:100F3000BB02809117038F3F19F060E00E94BB0253
:100F40008091210384FD80C063E082E193E00E94F0
:100F50000205CBE4D6E4CE010197F1F763E082E12C
:100F600093E00E9402052197F1F763E082E193E0AC
:100F70000E94020583E592E00197F1F762E082E1C9
:100F800093E00E9402058091210380620E94820505
:100F900084E0809322038CE00E9482050E948805F1
:100FA00082E08093230386E00E9482051092A502CE
:100FB0001092A9021092A8021092AA028FE192E068
:100FC0009093A4028093A302EFEBF2E010821482CC
:100FD00013821582369682E0EB3FF807B9F783E07B
:100FE00092E0909306038093050380E092E0909353
:100FF00008038093070384E08093090383E08093D0
:101000000A0387E092E090930403809303038AE04D
:1010100090E090930C0380930B0384EF91E0909306
:101020000E0380930D03109211031092100310927F
:10103000FF0210920003109201031092020310921B
:101040000F03DF91CF91089580620E9482058BE4A7
:1010500096E40197F1F78091210380620E94820556
:1010600083E592E00197F1F78091210380620E946D
:10107000820589CFEE0FFF1F881F8BBF0790F69167
:10108000E02D1994FB01DC018D9101908019011074
:0A109000D9F3990B0895F894FFCFEF
:10109A00050607010203043132333435363738394D
:1010AA002A3023313233343536000100000000295A
:1010BA0003E902B802000000009F05FB01DC04DB23
:1010CA00042057656C636F6D6520494E47312000D7
:1010DA002041726475696E6F20446F6F72002044FC
:1010EA006F6F7220697320636C6F73650020456EA1
:1010FA007465722050617373776F7264002A2A2AAA
:10110A002A002020446F6F72206973204F70656E29
:10111A0000202057726F6E672050617373776F7269
:02112A0064005F
:00000001FF
