:100000000C9462000C948A000C948A000C948A0070
:100010000C948A000C948A000C948A000C948A0038
:100020000C948A000C948A000C948A000C948A0028
:100030000C948A000C948A000C948A000C948A0018
:100040000C942C050C948A000C948A000C948A0061
:100050000C948A000C948A000C948A000C948A00F8
:100060000C948A000C948A000000000024002700F1
:100070002A0000000000250028002B0000000000DE
:1000800023002600290004040404040404040202DA
:100090000202020203030303030301020408102007
:1000A0004080010204081020010204081020000012
:1000B0000008000201000003040700000000000027
:1000C0000000830611241FBECFEFD8E0DEBFCDBFF6
:1000D00011E0A0E0B1E0E8E1FEE002C005900D9281
:1000E000A039B107D9F722E0A0E9B1E001C01D9223
:1000F000A832B207E1F710E0C2E6D0E004C02197D1
:10010000FE010E94FB06C136D107C9F70E947605A1
:100110000C940A070C94000096E0899FD0011124EA
:10012000AF55BE4F90967C936E935F9791E09196FA
:100130009C939197E0910E02F0910F0290910D0225
:10014000992339F0309751F0811108C08091BD0199
:100150000994309719F05C968C91FACF0895CF925C
:10016000DF92EF92FF920F931F9396E0899FF00129
:100170001124EF55FE4F11A2278D30A121303105FA
:1001800051F178F02230310509F451C023303105A6
:1001900009F452C01F910F91FF90EF90DF90CF9024
:1001A00008956623B9F361E070E00E948C002FB7D8
:1001B000F89480919D0190919E01A0919F01B09132
:1001C000A0012FBF8093F9019093FA01A093FB0146
:1001D000B093FC01DFCF9FB7F894C0909D01D09001
:1001E0009E01E0909F01F090A0019FBF0091F90156
:1001F0001091FA012091FB013091FC01C01AD10A43
:10020000E20AF30A00910B0210910C0230E020E0A8
:100210000C151D052E053F0550F462E070E01F919E
:100220000F91FF90EF90DF90CF900C948C006111B4
:10023000B1CF63E070E0F3CF70E060E0F0CFAF9259
:10024000BF92CF92DF92EF92FF920F931F93CF93C3
:10025000DF936C017B018B01040F151FEB015E0125
:10026000AE18BF08C017D10759F06991D601ED91BA
:10027000FC910190F081E02DC6010995892B79F759
:10028000C501DF91CF911F910F91FF90EF90DF900B
:10029000CF90BF90AF900895833081F028F48130E3
:1002A00099F08230A9F008958730A9F08830C9F01C
:1002B0008430B1F4809180008F7D03C080918000F4
:1002C0008F7780938000089584B58F7784BD0895DB
:1002D00084B58F7DFBCF8091B0008F778093B00085
:1002E00008958091B0008F7DF9CFCF93DF93282FB1
:1002F00030E0F901E255FF4F8491F901E656FF4FD6
:10030000D491F901EA57FF4FC491CC23A1F0811198
:100310000E944C01EC2FF0E0EE0FFF1FE458FF4F5E
:10032000A591B491EC91ED2381E090E009F480E097
:10033000DF91CF91089580E090E0FACF862F0C9462
:1003400075011F93CF93DF93282F30E0F901E25519
:10035000FF4F8491F901E656FF4FD491F901EA5716
:10036000FF4FC491CC23A9F0162F81110E944C019C
:10037000EC2FF0E0EE0FFF1FEE58FF4FA591B49168
:100380008FB7F894EC91111108C0D095DE23DC935F
:100390008FBFDF91CF911F910895DE2BF8CF862F6D
:1003A000642F0C94A101CF93DF9390E0FC01E656FB
:1003B000FF4F24918A579F4FFC0184918823C9F0F5
:1003C00090E0880F991FFC01E859FF4FA591B49167
:1003D000FC01EE58FF4FC591D49161110DC09FB73C
:1003E000F8948C91209582238C93888128232883EC
:1003F0009FBFDF91CF910895623051F49FB7F89479
:100400003C91822F809583238C93E8812E2BEFCF14
:100410008FB7F894EC912E2B2C938FBFEACF862FB9
:10042000642F0C94D3016F927F928F929F92AF9220
:10043000BF92CF92DF92EF92FF920F931F93CF93D1
:10044000DF9381E080930D028FB7F89440919D0176
:1004500050919E0160919F017091A0018FBF80918A
:10046000FD019091FE01A091FF01B0910002481B97
:10047000590B6A0B7B0B8091090290910A02B0E044
:10048000A0E084179507A607B70708F01DC1C0E0D4
:1004900080910702C81760F4E0910302F091040212
:1004A000EC0FF11D62E080810E94D301CF5FF0CF9D
:1004B000712C812C912C5401839480910802781620
:1004C00008F05FC0072D10E0E0910502F0910602F0
:1004D000E00FF11F61E080810E94D301E0910502ED
:1004E000F0910602E00FF11F60E080810E94A101FF
:1004F000D501C401072C04C0880F991FAA1FBB1F78
:100500000A94D2F76C017C01E094F094612C809104
:1005100007026816F8F4C62DD0E0E0910302F091CE
:100520000402EC0FFD1F80810E9475012496CC0F00
:10053000DD1FCF55DE4F892B41F4888199818C29AD
:100540009D29998388836394E2CF888199818E2144
:100550009F21F7CFE0910502F0910602E00FF11F15
:1005600061E080810E94A1018091050290910602C4
:10057000080F191F60E0F80180810E94D301739475
:100580009CCFC1EAD1E0FE018FEF9FEF278D30A114
:10059000232B21F4148E968F858F11A2369621E09D
:1005A000ED3DF20799F7F12C96E0D92E80910702E4
:1005B000F81608F050C0E12C0F2D10E0000F111FAD
:1005C00007551E4F20910802E21608F042C0F801BC
:1005D000608171810E2C02C0769567950A94E2F7CE
:1005E000F29E900111242E0D311DE1EAF1E080E030
:1005F000458D568D2417350709F46AC08F5F3696EE
:100600008A30B1F760FF23C0E1EAF1E090E080E0DA
:10061000448D411117C0E0910102F0910202E20FF6
:10062000F31F4081D89EF001D99EF00D1124EF55A3
:10063000FE4F448F368F258F10A2178E61E00E94E7
:10064000AF0005C0019636968A30910509F7E3940C
:10065000B9CFF394ABCF80E099A19111892F269661
:10066000F1E0CD3DDF07C1F79FB7F89440919D01C0
:1006700050919E0160919F017091A0019FBF409396
:10068000FD015093FE016093FF01709300028823E7
:10069000D9F08091C2018823B9F08091C001909176
:1006A000C101019789F48091BD01DF91CF911F9124
:1006B0000F91FF90EF90DF90CF90BF90AF909F9001
:1006C0008F907F906F90089510920D0280E0EDCF93
:1006D0006170B5CF3FB7F8948091910190919201EC
:1006E000A0919301B091940126B5A89B05C02F3F1E
:1006F00019F00196A11DB11D3FBFBA2FA92F982F48
:100700008827BC01CD01620F711D811D911D42E042
:10071000660F771F881F991F4A95D1F708958F920A
:100720009F92AF92BF92CF92DF92EF92FF924B01D6
:100730005C010E946A036B017C010E946A036C19D0
:100740007D098E099F09683E734081059105A8F3D4
:1007500021E0821A9108A108B10888EEC80E83E052
:10076000D81EE11CF11C81149104A104B10429F7E5
:10077000FF90EF90DF90CF90BF90AF909F908F90C1
:100780000895089590E080E00895FC010190002014
:10079000E9F73197AF01481B590BBC0180E192E0AA
:1007A0000C941F01CF93DF93EC0160E08E810E94D7
:1007B000A10161E08E810E94A10160E08E810E9412
:1007C000A1018BE891E00197F1F7DF91CF910895B6
:1007D000CF92DF92EF92FF920F931F93CF93DF930D
:1007E0006C017C0187E0E80EF11CD0E0C0E0062F30
:1007F00010E0B8010C2E02C0759567950A94E2F7D7
:100800006170F70181917F010E94A1012196C4309E
:10081000D10579F7C601DF91CF911F910F91FF901C
:10082000EF90DF90CF900C94D203CF92DF92EF92B3
:10083000FF920F931F93CF93DF93EC01F62E642F5B
:100840008C810E94A1018D818F3F19F060E00E9490
:10085000A1010F2D10E08F8584FF25C06E0187E078
:10086000C80ED11CF12CE12CB8010E2C02C07595DC
:1008700067950A94E2F76170F60181916F010E9419
:10088000A101FFEFEF1AFF0A88E0E816F10461F713
:10089000CE01DF91CF911F910F91FF90EF90DF90EC
:1008A000CF900C94D203B80184E0759567958A9532
:1008B000E1F7CE010E94E8036F2DCE01DF91CF91C9
:1008C0001F910F91FF90EF90DF90CF900C94E80371
:1008D00040E0682F80E192E00C94150481E00E94D2
:1008E00068048BE39FE10197F1F70895CF93DF93BD
:1008F000823029F490911F02986090931F02809398
:1009000023021092240280E48093250280E18093E8
:10091000260280E58093270261E0809114020E9404
:10092000D301809115028F3F19F061E00E94D3013D
:1009300061E0809116020E94D301C0E1D2E09E01E5
:100940002051324080911F0284FD0BC084E090E072
:1009500021962817390744F461E08E810E94D30163
:10096000EECF88E090E0F4CF8BE39DE00197F1F7C4
:1009700060E0809114020E94A10160E08091160263
:100980000E94A101809115028F3F19F060E00E9442
:10099000A10180911F0284FD34C063E080E192E0F8
:1009A0000E94E803CBE4D6E4CE010197F1F763E0BF
:1009B00080E192E00E94E8032197F1F763E080E193
:1009C00092E00E94E80383E592E00197F1F762E08C
:1009D00080E192E00E94E80380911F0280620E9401
:1009E000680484E0809320028CE00E9468040E94E6
:1009F0006E0482E08093210286E0DF91CF910C9417
:100A0000680480620E9468048BE496E40197F1F721
:100A100080911F0280620E94680483E592E0019742
:100A2000F1F780911F0280620E946804D5CF9091F7
:100A30002302691710F06FEF690FE62FF0E0E05F17
:100A4000FD4F9489890F80680C94680441E00E94EE
:100A5000150481E090E008951F920F920FB60F9257
:100A600011242F933F938F939F93AF93BF938091C4
:100A70009D0190919E01A0919F01B091A0013091A4
:100A8000900123E0230F2D3758F50196A11DB11DCC
:100A90002093900180939D0190939E01A0939F01CC
:100AA000B093A0018091910190919201A091930146
:100AB000B09194010196A11DB11D80939101909375
:100AC0009201A0939301B0939401BF91AF919F9134
:100AD0008F913F912F910F900FBE0F901F901895FF
:100AE00026E8230F0296A11DB11DD2CF789484B5BC
:100AF000826084BD84B5816084BD85B5826085BD1A
:100B000085B5816085BD80916E00816080936E00A7
:100B10001092810080918100826080938100809199
:100B2000810081608093810080918000816080934A
:100B300080008091B10084608093B1008091B0000A
:100B400081608093B00080917A00846080937A0005
:100B500080917A00826080937A0080917A0081602F
:100B600080937A0080917A00806880937A00109256
:100B7000C10061E08AE00E94D30161E089E00E9447
:100B8000D30182E00E94760460E081E00E941705B4
:100B900081E391E00E94C50364EF71E080E090E0A2
:100BA0000E948F0361E080E00E94170580E491E0DD
:100BB0000E94C50364EF71E080E090E00E948F0323
:100BC00061E089E00E94A10160E08AE00E94A10149
:100BD0000E946E04C0E0D0E080911A0160E08111B3
:100BE00027C089E00E94A10161E08AE00E94A10182
:100BF0000E9413028332B9F40E946E048EE491E0E5
:100C00000E94C50361E089E00E94A10160E08AE0E2
:100C10000E94A1016CED75E080E090E00E948F03DE
:100C200081E080931A012097B9F20E940000D4CF8E
:100C300080E00E9417058DE591E00E94C5030E94A7
:100C40001302982F882399F080919C01E82FF0E0FF
:100C5000EB56FE4F908361E00E9417058DE691E010
:100C60000E94C50380919C018F5F80939C018091BD
:100C70009C018630C1F663E171E085E991E00E9454
:100C80000107892BF9F40E946E0460E080E00E9465
:100C900017058FE691E00E94C50310921A0160E0EB
:100CA00089E00E94A10161E08AE00E94A101809197
:100CB0009C01E82FF0E0EA56FE4F882309F18150AD
:100CC0001292FBCF0E946E0461E080E00E94170543
:100CD0008EE791E00E94C50361E089E00E94A101D6
:100CE00060E08AE00E94A10168EE73E080E090E09D
:100CF0000E948F0381E080931A010E946E04D7CF77
:100D000010929C0190CF109213021092120289E26D
:100D100091E090931102809310028EE08093140270
:100D20008FEF809315028FE08093160280E180930D
:100D3000170281E18093180282E18093190283E116
:100D400080931A0210921B0210921C0210921D0234
:100D500010921E0210921F0281E00E9476041092EF
:100D6000A3011092A7011092A6011092A8018FE191
:100D700091E09093A2018093A101EDEBF1E010824C
:100D8000148213821582369681E0E93FF807B9F79D
:100D900083E091E0909304028093030280E091E06D
:100DA000909306028093050284E08093070283E01B
:100DB0008093080287E091E0909302028093010201
:100DC0008AE090E090930A028093090284EF91E018
:100DD00090930C0280930B0210920F0210920E025D
:100DE0001092FD011092FE011092FF01109200027C
:100DF00010920D020895EE0FFF1F0590F491E02D63
:100E00000994FB01DC018D91019080190110D9F347
:080E1000990B0895F894FFCF3F
:100E180006070802030405313233343536373839CA
:100E28002A30233132333435360001000000000FF8
:100E380002CF019E010000000026051F01C203C168
:100E4800032057656C636F6D6520494E473120005C
:100E58002041726475696E6F20446F6F7200204480
:100E68006F6F7220697320636C6F73650020456E25
:100E78007465722050617373776F7264002A002062
:100E880020446F6F72206973204F70656E002020B8
:100E980057726F6E672050617373776F72640000CA
:00000001FF
